:020000040000fa
:080000000001040000000000f3
:020000040000fa
:040008002e030000c3
:020000040000fa
:04000c002e030000bf
:020000040000fa
:040010002e030000bb
:020000040000fa
:040014002e030000b7
:020000040000fa
:040018002e030000b3
:020000040000fa
:04001c002e030000af
:020000040000fa
:040020002e030000ab
:020000040000fa
:040024002e030000a7
:020000040000fa
:040028002e030000a3
:020000040000fa
:04002c002e0300009f
:020000040000fa
:040030002e0300009b
:020000040000fa
:04003400c8010000ff
:020000040000fa
:040038002e03000093
:020000040000fa
:04003c002e0300008f
:020000040000fa
:040040002e0300008b
:020000040000fa
:040044002e03000087
:020000040000fa
:040048002e03000083
:020000040000fa
:04004c002e0300007f
:020000040000fa
:040050002e0300007b
:020000040000fa
:040054002e03000077
:020000040000fa
:040058002e03000073
:020000040000fa
:04005c001802000086
:020000040000fa
:040060002e0300006b
:020000040000fa
:040064002e03000067
:020000040000fa
:040068002e03000063
:020000040000fa
:04006c002e0300005f
:020000040000fa
:040070002e0300005b
:020000040000fa
:040074002e03000057
:020000040000fa
:040078002e03000053
:020000040000fa
:04007c002e0300004f
:020000040000fa
:040080002e0300004b
:020000040000fa
:040084002e03000047
:020000040000fa
:04008800f40100007f
:020000040000fa
:04008c002e0300003f
:020000040000fa
:040090002e0300003b
:020000040000fa
:040094002e03000037
:020000040000fa
:040098002e03000033
:020000040000fa
:04009c002e0300002f
:020000040000fa
:0400a0002e0300002b
:020000040000fa
:0400a4002e03000027
:020000040000fa
:0400a8002e03000023
:020000040000fa
:0400ac002e0300001f
:020000040000fa
:0400b0002e0300001b
:020000040000fa
:0400b4002e03000017
:020000040000fa
:0400b8002e03000013
:020000040000fa
:0400bc002e0300000f
:020000040000fa
:0400c0002e0300000b
:020000040000fa
:0400c4002e03000007
:020000040000fa
:0400c8002e03000003
:020000040000fa
:0400cc002e030000ff
:020000040000fa
:0400d0002e030000fb
:020000040000fa
:0400d4002e030000f7
:020000040000fa
:0400d8002e030000f3
:020000040000fa
:040108002e030000c2
:020000040000fa
:04010c002e030000be
:020000040000fa
:040110002e030000ba
:020000040000fa
:040114002e030000b6
:020000040000fa
:040118002e030000b2
:020000040000fa
:04011c002e030000ae
:020000040000fa
:040120002e030000aa
:020000040000fa
:040124002e030000a6
:020000040000fa
:040128002e030000a2
:020000040000fa
:04012c002e0300009e
:020000040000fa
:040130002e0300009a
:020000040000fa
:04013400c8010000fe
:020000040000fa
:040138002e03000092
:020000040000fa
:04013c002e0300008e
:020000040000fa
:040140002e0300008a
:020000040000fa
:040144002e03000086
:020000040000fa
:040148002e03000082
:020000040000fa
:04014c002e0300007e
:020000040000fa
:040150002e0300007a
:020000040000fa
:040154002e03000076
:020000040000fa
:040158002e03000072
:020000040000fa
:04015c001802000085
:020000040000fa
:040160002e0300006a
:020000040000fa
:040164002e03000066
:020000040000fa
:040168002e03000062
:020000040000fa
:04016c002e0300005e
:020000040000fa
:040170002e0300005a
:020000040000fa
:040174002e03000056
:020000040000fa
:040178002e03000052
:020000040000fa
:04017c002e0300004e
:020000040000fa
:040180002e0300004a
:020000040000fa
:040184002e03000046
:020000040000fa
:04018800f40100007e
:020000040000fa
:04018c002e0300003e
:020000040000fa
:040190002e0300003a
:020000040000fa
:040194002e03000036
:020000040000fa
:040198002e03000032
:020000040000fa
:04019c002e0300002e
:020000040000fa
:0401a0002e0300002a
:020000040000fa
:0401a4002e03000026
:020000040000fa
:0401a8002e03000022
:020000040000fa
:0401ac002e0300001e
:020000040000fa
:0401b0002e0300001a
:020000040000fa
:0401b4002e03000016
:020000040000fa
:0401b8002e03000012
:020000040000fa
:0401bc002e0300000e
:020000040000fa
:0401c0002e0300000a
:020000040000fa
:0401c4002e03000006
:020000040000fa
:0401c8002e03000002
:020000040000fa
:0401cc002e030000fe
:020000040000fa
:0401d0002e030000fa
:020000040000fa
:0401d4002e030000f6
:020000040000fa
:0401d8002e030000f2
:020000040000fa
:100200000f8320000eff20000e0188000000000078
:10021000000020000000e000020032000001200089
:1002200020028800140007000e0107000000e00013
:1002300003003a0060812000010020000200370026
:100240000000200001002000810f7000010032003a
:1002500014000700000020000000e000020032004f
:1002600000000200000000005c0602000000000028
:100270000040da000000fe004440a900c000200059
:100280000000e0000300320000002000a001880010
:100290004440a800000006008a1f78008b1f7800e9
:1002a0000000060091018800800478000000eb0047
:1002b0001a003700e284440032a0b4009905ba0065
:1002c000e284440032a0b4009906ba00e2844400fb
:1002d00032a0b4000006eb00476fde00fd07b2005d
:1002e000636ce10003003a00ebff07000000eb0045
:1002f0000a003700606ce10004003a00005deb008a
:100300008b05e900fdff3e00040037006168e10055
:10031000010032000086eb000b00070019c7ba008d
:100320001905ba000e04e00003003a000a00e000dc
:10033000e0ff3a0000000600fe07b2009e018800c0
:100340008a047800f5ff3700395dba008b05e900b3
:100350000c003200295dba008b05e900080032006c
:100360000c00e00003003a00e284440032a0b40034
:10037000f5ff370019ddba008b05e900faff3a00f6
:100380008904e800e184440032a0b40000000600c3
:10039000809fbe003400f80000002000a00188000b
:1003a0000000fa00b01680004300de0061406000eb
:1003b0000004a200614060000080fb00610060005a
:1003c0004300dd00b11680000130a1000100700083
:1003d000b01688008460a9000080fa003400f9009b
:1003e0004f00be00004006003600f800809fbe00af
:1003f000829fbe00849fbe00869fbe003400f8002e
:1004000000002000a00188000000fa00e8010700b9
:100410000080fa003400f9004f03be004f02be0016
:100420004f01be004f00be003600f900004006003c
:10043000809fbe00821f78003400f800000020007a
:10044000a00188000200fa000040eb00004f780095
:1004500040108000640060000000e0003c003a00b2
:100460004110800000022000008060000000e000d9
:100470003400320018c8bf000080fb000000e0001c
:1004800003003200e20f5000100032006d00370010
:100490000010800000108000ed0f500003003e00af
:1004a00010c0b30018e8b7000200370020c0b30046
:1004b00018e8b70000108000004078001ae8b70084
:1004c0001968ef00000000005e00370019c8bf0087
:1004d0000004e00006003a000010800000407800b0
:1004e0001be8b70010c0b30019e8b700550037008b
:1004f00019c8bf00e24f500051003a0000108000c0
:10050000e20f50000b003a001ac8bf000081fb0048
:100510001bc8bf0080407800c0812000000041005f
:100520000148780030c0b30019e8b7001868ef0040
:100530004400370015c8bf006840600015e8b700e8
:100540004000370000108000004f78003d00370069
:100550003110800000002100008060000000e000f9
:1005600034003a0018c8bf00e14f500023003a00a1
:1005700019c8bf000004e00010003a001ac8bf000c
:100580008080fb00c0812000008040001040780087
:100590000000fb00101088000000000040108000e8
:1005a000610060000000e000fcff32000782a8004c
:1005b00010c0b30019e8b7001e00370019c8bf000b
:1005c000e14f50001b003a001ac8bf000080fb003a
:1005d00010108800000000004010800061006000e2
:1005e0000000e000fcff32000782a80020c0b3003a
:1005f00019e8b7001868ef000e00370018c8bf00f0
:10060000e24f50000b003a001ac8bf000080fb0008
:1006100010108800000000004010800061006000a1
:100620000000e000fcff32000782a80020c0b300f9
:1006300019e8b70000108000004f78000100370073
:100640000000000085a0a9000080fa003400f90035
:100650004f0178004f00be00004006000040da0065
:100660000000fe00000005000001be001f000700a2
:100670000470a70003f0a1006509b1001600320064
:100680000d0035006828e10006003500f0ff2f005e
:10069000f1ff27000300e00013003b0001002800e9
:1006a0000000050000004000818048008502e9004c
:1006b000fcff3a0008003700f88f420002003c00bf
:1006c0008000eb00000005008100d1000080d30015
:1006d0008502e800fcff3a000300e00002003b0056
:1006e00060001000e080180000000600c70ade006d
:1006f000f107b200f50fb20008003200e1cf42006e
:10070000020032000170a00024000500810f70007b
:10071000010032000408050044000500810f70004c
:1007200002003a00140005008502e90000004000c4
:1007300081c04800fcff3b000170a00024000500c0
:10074000038368000700280007036300470ade00f0
:100750000480a100c71ade000580a100f70f200069
:100760000720e100420032000728e100400032008b
:10077000889fbe008a9fbe008c1f7800f107b200e0
:10078000f307b2000400e000640032000170a00032
:100790000500e000680032000370a00085054200fb
:1007a000eb07b1000204b8000302b80084844400df
:1007b00060854a00020ab800848444000a854a0021
:1007c000030ab80004054500040033000804d00003
:1007d0008984d2000a85d2008b05e9006158e100c6
:1007e0003d003500021020000901610003082000cf
:1007f00089816100f7072000878364000886730001
:10080000c84cde00c853dd00878474004855de0004
:100810000300e0000600320082037600040032008c
:100820008904e80060054d000a88a3000c003a0026
:10083000f70f20000758e10044003d000a70a100b6
:10084000c75ddd000a8575008a0073000900780025
:100850004f0678004f05be004f04be0000000600a2
:100860000a05d1008984d3008b05e800f0ff37002a
:10087000881f7800060478009000070007027800bf
:100880000001fd008101fd008c0007008702780057
:10089000850372000778a300050032000001fd0007
:1008a0008101fd009f0007004f0478000000060052
:1008b000850372000748a30003003200f0ff2f00f9
:1008c000f1ff2700f8ff37000000200001f82700a3
:1008d00088807000f4ff3700880178004848dd0008
:1008e000808171004848de00c850dd0001007000c2
:1008f000c850de00060478000b01780016000700df
:1009000088807000d2ff37000500e000050032004b
:10091000170020003a0007009dff37008103700098
:10092000f9ff3a00860078004f0678004f05be00b8
:100930004f04be000000050083037100f9ff320080
:10094000270020002e00070094ff370001f8270041
:1009500086807000f4ff37000100e00026003200be
:10096000610111007810e10023003c006022b80012
:100970007010e1000400350080027800010078006a
:100980008000eb00700151000200e000090034001b
:1009900070031100062add00822ade008603dd00d6
:1009a000878272000200de00860bdd000700700007
:1009b0008208de0084817100f4ff27000482620057
:1009c000848171000400280084826200610260005a
:1009d00005f0a60000000600048271000700320046
:1009e0000000e800e0804800000006000002be00b1
:1009f0006000b800efff37006000b800000006009c
:100a0000889fbe000004eb006138e10016003a0048
:100a10000100e00008003a00c800de004800dd00e8
:100a2000880020000100e00003003a00c800de005a
:100a30004800dd00680444008184cf00e98454004c
:100a4000060034008908dd00f08314008703de000f
:100a5000878070000900dd00090444006102140071
:100a60004f04be00000006000300e00008003a004a
:100a7000c811de004811dd00880020000300e000fe
:100a800003003a00c811de004811dd00680444008c
:100a90008384cf00e9845400060034008919dd0006
:100aa000f08314008713de00878171000911dd00d7
:100ab00009044400e1021400e9ff37002700200088
:100ac00001f0a70017002000470bde00f60fb20070
:100ad000040032000643e8000a0032004702b30077
:100ae0000000060001037800f607b200060370005c
:100af00002003a000703b300000006008702b300bb
:100b00000000060001037800f607b200060370003b
:100b1000020032000770a000000006000760a0007d
:100b2000000006000478a300040032000578a3004a
:100b3000030032000168a30001003a000200be0079
:080b40000160a00000000600a6
:020000040000fa
:100b4800486f00006c610000204d0000756e0000c9
:080b5800646f00000a000000b8
:020000040000fa
:100b60000000fa001622ef001822ef00b00020006b
:100b7000f0108800b010800000f0a000b0108800d5
:100b8000c010800000a0a000c01088008f00a80046
:100b90000105800080ff2f00008060006000b3002e
:100ba000000588008700a9000080fa000000060008
:100bb0000000fa008700a90000c8bf000001fb0088
:100bc000e01080008040780010802000000041008c
:100bd0000148780000c8bf000040e80000e8b70006
:100be00000c8bf000000fb008000e900108020006a
:100bf0000080400010407800ea4f50000e003200a4
:100c000000c8bf00f44f500010003a000b0037003e
:100c100000c8bf008000fb00108020000080400062
:100c20008040eb000148780000c8bf000040e800a9
:100c300000e8b700010037000000000000c8bf0056
:100c4000f44f5000f2ff3a000068ef000080fa0015
:100c5000000006000200fa00000f780004003700d0
:100c60001e00780010407800070007001e0fe80003
:100c70001e007800104078000004e000f8ff3a0001
:100c80000080fa00000006000200fa00004f780021
:100c900000000000c11080000010200000806000f3
:100ca0000000e000fbff32001e80fb00d010880037
:100cb0000080fa00000006000000fa00d222ef00d7
:100cc000d622ef00d722a800c0c12100100888005a
:100cd0000021ef008460a90000022800200888009d
:100ce0009fff070020732000600888000621ef00a6
:100cf00084c0a9001021ef008221ef00800c2000a9
:100d0000000c88008421ef00210c800080ff2f0060
:100d1000008060006000b300200c88008008800024
:100d200000f0a000800888008c60a800a10480006a
:100d30000000270001007000a00488008460a90062
:100d40008da0a800000120002010880000102900bc
:100d500030108800800020005010880085a0a90075
:100d600040d42100c1012000a2000700d722a90021
:100d7000a0c0b3001ce8b70040c1b3001de8b70035
:100d8000e0c1b3001ee8b70080c2b3001fe8b7009f
:100d9000d722a800405a2800aeff0700108020008c
:100da000acff0700d722a9002dc8bf000000fb0040
:100db0006a00b90000007800000c880040d42100cf
:100dc000c10120008b000700f1ff37000400fa008a
:100dd000008fbe0002002600634e24001e00be00ed
:100de00057fe070020fe070000007800000c880076
:100df0000080fa00000006000000fa00630007000f
:100e0000a0002000101088000000000041108000a9
:100e100000002400008060000000e00004003200b8
:100e200040108000610060000000e000f7ff3a0021
:100e30004110800000002800008060000000e000f9
:100e40000300320015c8bf000004a00015e8b70079
:100e500016c8bf000000fb001010880085c0a90064
:100e600000000000411080000000240000806000ad
:100e70000000e000040032004010800061006000cb
:100e80000000e000f7ff3a00100020000100200001
:100e9000580007004110800000002800008060001a
:100ea0000000e0000300320015c8bf000014a000dd
:100eb00015e8b70046000700b000200010108800b9
:100ec00085c0a9000000000041108000000024003f
:100ed000008060000000e00004003200401080004c
:100ee000610060000000e000f7ff3a001000200001
:100ef000010020003f000700411080000000280092
:100f0000008060000000e0000300320015c8bf0050
:100f10000024a00015e8b7000662a8000000000049
:100f200030108000680060000000e000fcff3a0024
:100f300006a2a8000682a80085c0a9000000000043
:100f400030108000700060000000e000fcff3a00fc
:100f5000001080000040780017e8b700020007008a
:100f60000080fa00000006000000fa000642a80017
:100f70000000000030108000640060000000e0000d
:100f8000fcff3a000080fa00000006000000fa00b2
:100f900040108000700060000000e00004003a0093
:100fa00000178000680060000000e00006003200ca
:100fb0000602a80000000000301080006100600000
:100fc0000000e000fcff3a000080fa00000006008c
:100fd0000000fa000622a800000000003010800087
:100fe000620060000000e000fcff3a000080fa00b0
:040ff00000000600f7
:020000040000fa
:100ff400f03fb1000180b10006003500ee030900a6
:1010040000000000403fb1000180b100fbff3d0043
:101014001000b000203fb00002003500008009003d
:081024000000000000000600be
:020000040000fa
:10102c00000800003000000000000000000000007c
:020000040000fa
:0200000401f009
:04000000e0b9000063
:020000040000fa
:0200000401f009
:04000400ff7f00007a
:020000040000fa
:0200000401f009
:04000800ffff0000f6
:020000040000fa
:0200000401f009
:04001800ffff0000e6
:00000001FF
