:020000040000fa
:080000000001040000000000f3
:020000040000fa
:040008002e030000c3
:020000040000fa
:04000c002e030000bf
:020000040000fa
:040010002e030000bb
:020000040000fa
:040014002e030000b7
:020000040000fa
:040018002e030000b3
:020000040000fa
:04001c002e030000af
:020000040000fa
:040020002e030000ab
:020000040000fa
:040024002e030000a7
:020000040000fa
:040028002e030000a3
:020000040000fa
:04002c002e0300009f
:020000040000fa
:040030002e0300009b
:020000040000fa
:04003400c8010000ff
:020000040000fa
:040038002e03000093
:020000040000fa
:04003c002e0300008f
:020000040000fa
:040040002e0300008b
:020000040000fa
:040044002e03000087
:020000040000fa
:040048002e03000083
:020000040000fa
:04004c002e0300007f
:020000040000fa
:040050002e0300007b
:020000040000fa
:040054002e03000077
:020000040000fa
:040058002e03000073
:020000040000fa
:04005c001802000086
:020000040000fa
:040060002e0300006b
:020000040000fa
:040064002e03000067
:020000040000fa
:040068002e03000063
:020000040000fa
:04006c002e0300005f
:020000040000fa
:040070002e0300005b
:020000040000fa
:040074002e03000057
:020000040000fa
:040078002e03000053
:020000040000fa
:04007c002e0300004f
:020000040000fa
:040080002e0300004b
:020000040000fa
:040084002e03000047
:020000040000fa
:04008800f40100007f
:020000040000fa
:04008c002e0300003f
:020000040000fa
:040090002e0300003b
:020000040000fa
:040094002e03000037
:020000040000fa
:040098002e03000033
:020000040000fa
:04009c002e0300002f
:020000040000fa
:0400a0002e0300002b
:020000040000fa
:0400a4002e03000027
:020000040000fa
:0400a8002e03000023
:020000040000fa
:0400ac002e0300001f
:020000040000fa
:0400b0002e0300001b
:020000040000fa
:0400b4002e03000017
:020000040000fa
:0400b8002e03000013
:020000040000fa
:0400bc002e0300000f
:020000040000fa
:0400c0002e0300000b
:020000040000fa
:0400c4002e03000007
:020000040000fa
:0400c8002e03000003
:020000040000fa
:0400cc002e030000ff
:020000040000fa
:0400d0002e030000fb
:020000040000fa
:0400d4002e030000f7
:020000040000fa
:0400d8002e030000f3
:020000040000fa
:040108002e030000c2
:020000040000fa
:04010c002e030000be
:020000040000fa
:040110002e030000ba
:020000040000fa
:040114002e030000b6
:020000040000fa
:040118002e030000b2
:020000040000fa
:04011c002e030000ae
:020000040000fa
:040120002e030000aa
:020000040000fa
:040124002e030000a6
:020000040000fa
:040128002e030000a2
:020000040000fa
:04012c002e0300009e
:020000040000fa
:040130002e0300009a
:020000040000fa
:04013400c8010000fe
:020000040000fa
:040138002e03000092
:020000040000fa
:04013c002e0300008e
:020000040000fa
:040140002e0300008a
:020000040000fa
:040144002e03000086
:020000040000fa
:040148002e03000082
:020000040000fa
:04014c002e0300007e
:020000040000fa
:040150002e0300007a
:020000040000fa
:040154002e03000076
:020000040000fa
:040158002e03000072
:020000040000fa
:04015c001802000085
:020000040000fa
:040160002e0300006a
:020000040000fa
:040164002e03000066
:020000040000fa
:040168002e03000062
:020000040000fa
:04016c002e0300005e
:020000040000fa
:040170002e0300005a
:020000040000fa
:040174002e03000056
:020000040000fa
:040178002e03000052
:020000040000fa
:04017c002e0300004e
:020000040000fa
:040180002e0300004a
:020000040000fa
:040184002e03000046
:020000040000fa
:04018800f40100007e
:020000040000fa
:04018c002e0300003e
:020000040000fa
:040190002e0300003a
:020000040000fa
:040194002e03000036
:020000040000fa
:040198002e03000032
:020000040000fa
:04019c002e0300002e
:020000040000fa
:0401a0002e0300002a
:020000040000fa
:0401a4002e03000026
:020000040000fa
:0401a8002e03000022
:020000040000fa
:0401ac002e0300001e
:020000040000fa
:0401b0002e0300001a
:020000040000fa
:0401b4002e03000016
:020000040000fa
:0401b8002e03000012
:020000040000fa
:0401bc002e0300000e
:020000040000fa
:0401c0002e0300000a
:020000040000fa
:0401c4002e03000006
:020000040000fa
:0401c8002e03000002
:020000040000fa
:0401cc002e030000fe
:020000040000fa
:0401d0002e030000fa
:020000040000fa
:0401d4002e030000f6
:020000040000fa
:0401d8002e030000f2
:020000040000fa
:100200006f8320000eff20000e0188000000000018
:10021000000020000000e000020032000001200089
:1002200020028800140007000e0107000000e00013
:1002300003003a0000d12000010020000200370036
:100240000000200001002000810f7000010032003a
:1002500014000700000020000000e000020032004f
:100260000000020000000000200b0200000000005f
:100270000040da000000fe004440a900c000200059
:100280000000e0000300320000002000a001880010
:100290004440a800000006008a1f78008b1f7800e9
:1002a0000000060091018800800478000000eb0047
:1002b0001a003700e284440032a0b4009905ba0065
:1002c000e284440032a0b4009906ba00e2844400fb
:1002d00032a0b4000006eb00476fde00fd07b2005d
:1002e000636ce10003003a00ebff07000000eb0045
:1002f0000a003700606ce10004003a00005deb008a
:100300008b05e900fdff3e00040037006168e10055
:10031000010032000086eb000b00070019c7ba008d
:100320001905ba000e04e00003003a000a00e000dc
:10033000e0ff3a0000000600fe07b2009e018800c0
:100340008a047800f5ff3700395dba008b05e900b3
:100350000c003200295dba008b05e900080032006c
:100360000c00e00003003a00e284440032a0b40034
:10037000f5ff370019ddba008b05e900faff3a00f6
:100380008904e800e184440032a0b40000000600c3
:10039000809fbe003400f80000002000a00188000b
:1003a0000000fa00b01680004300de0061406000eb
:1003b0000004a200614060000080fb00610060005a
:1003c0004300dd00b11680000130a1000100700083
:1003d000b01688008460a9000080fa003400f9009b
:1003e0004f00be00004006003600f800809fbe00af
:1003f000829fbe00849fbe00869fbe003400f8002e
:1004000000002000a00188000000fa00630307003c
:100410000080fa003400f9004f03be004f02be0016
:100420004f01be004f00be003600f900004006003c
:10043000809fbe00821f78003400f800000020007a
:10044000a00188000200fa000040eb00004f780095
:1004500040108000640060000000e0003c003a00b2
:100460004110800000022000008060000000e000d9
:100470003400320018c8bf000080fb000000e0001c
:1004800003003200e20f5000100032006d00370010
:100490000010800000108000ed0f500003003e00af
:1004a00010c0b30018e8b7000200370020c0b30046
:1004b00018e8b70000108000004078001ae8b70084
:1004c0001968ef00000000005e00370019c8bf0087
:1004d0000004e00006003a000010800000407800b0
:1004e0001be8b70010c0b30019e8b700550037008b
:1004f00019c8bf00e24f500051003a0000108000c0
:10050000e20f50000b003a001ac8bf000081fb0048
:100510001bc8bf0080407800c0812000000041005f
:100520000148780030c0b30019e8b7001868ef0040
:100530004400370015c8bf006840600015e8b700e8
:100540004000370000108000004f78003d00370069
:100550003110800000002100008060000000e000f9
:1005600034003a0018c8bf00e14f500023003a00a1
:1005700019c8bf000004e00010003a001ac8bf000c
:100580008080fb00c0812000008040001040780087
:100590000000fb00101088000000000040108000e8
:1005a000610060000000e000fcff32000782a8004c
:1005b00010c0b30019e8b7001e00370019c8bf000b
:1005c000e14f50001b003a001ac8bf000080fb003a
:1005d00010108800000000004010800061006000e2
:1005e0000000e000fcff32000782a80020c0b3003a
:1005f00019e8b7001868ef000e00370018c8bf00f0
:10060000e24f50000b003a001ac8bf000080fb0008
:1006100010108800000000004010800061006000a1
:100620000000e000fcff32000782a80020c0b300f9
:1006300019e8b70000108000004f78000100370073
:100640000000000085a0a9000080fa003400f90035
:100650004f0178004f00be00004006000040da0065
:100660000000fe00000005001400200029023700f1
:100670000001be00220007000470a70003f0a100e3
:100680006509b100160032000d0035006828e10050
:1006900006003500f0ff2f00f1ff27000300e00007
:1006a00013003b000100280000000500000040008e
:1006b000818048008502e900fcff3a00080037000d
:1006c000f88f420002003c008000eb0000000500b3
:1006d0008100d1000080d3008502e800fcff3a00d1
:1006e0000300e00002003b0060001000e080180002
:1006f000000006004f89de008201780020023700ea
:10070000c70ade00f107b200f50fb20008003200a0
:10071000e1cf4200020032000170a0002400050079
:10072000810f70000100320004080500440005003c
:10073000810f700002003a00140005008502e900f4
:100740000000400081c04800fcff3b000170a00099
:100750002400050007f82700078361000638e10040
:1007600004003a00f70720008783610087037100c7
:1007700001003a0003f0a200889fbe008a9fbe00dd
:100780008c9fbe00470ade000480a100c71ade006d
:100790000580a100070028000785600087856100ab
:1007a000f70f20000720e1009e0032000728e1003b
:1007b0009c003200010678000400e000b400320022
:1007c000f7072000878060000170a0000500e000ae
:1007d000c0003200f7072000878161000370a0008d
:1007e000050652000f003a000b50e1000b003200ea
:1007f0000308e10002003a000200e1007e0032003e
:100800000204500083845800040031000001fd0000
:100810008101fd008402fd008a05fd006044b800ee
:10082000210037000520e10005003d000001fd002a
:100830008101fd008402fd008a05fd0005065200cd
:100840007a60e100050035000170a1004722dd005b
:10085000848070008a807000630037006044b800b4
:10086000ef02660007ff2f00070666000500e000a4
:1008700006003400f08312008714dd000511de004d
:10088000071bdd00060171008519de007060e100c4
:10089000050035000904780082047800030178001f
:1008a0008001eb00700656000b50e10003003a0097
:1008b00002004000838048000400370060041400f8
:1008c000e0841c0002005800838058000188a300c7
:1008d000060032008100d1000080d3008984d3005b
:1008e0000884d3000402e800270037000178a30041
:1008f00025003a000100e000030032008186cf00ad
:10090000698656000a0037008c0020000000e000d5
:1009100004003a0009007800880478000004eb0025
:10092000700252008086cf000d0646000c06e900da
:100930007060e10006003500800078000900780052
:10094000880478000004eb00700656007002520024
:100950000c00e0000c0034008c08dd00f0031600f1
:100960000703de00868070000c00dd00074bde0010
:10097000060070008c4cdd000743de0086847400a6
:100980000c44dd000c0252006120e1002000350023
:10099000610160000700280087816400f7ff2700dd
:1009a00087836400070374000300e0000600320040
:1009b00082037300040032000000e800e080480079
:1009c0000188a3000e003a00f70f20000720e10085
:1009d0004a003d000170a1004722dd008100720045
:1009e0008a8070000000be004f06be004f05be00aa
:1009f0004f04be00000006006000b800faff370098
:100a00008100d1000080d3000402e800eeff37002f
:100a10000401780089017400c20007008a80700018
:100a2000f1ff370018010700070278000001fd0000
:100a30008101fd0014010700870278008503720020
:100a40000778a300040032000001fd008101fd00d1
:100a500027010700e4ff3700850362000768a30051
:100a6000080032000b50e10003003200f0ff2f00bd
:100a7000f1ff2700dcff37000001fd008101fd00d0
:100a8000d9ff37000468a300d7ff3200faff370010
:100a9000f8ff2700888360000b003a000000e000a8
:100aa00009003a008303640082837300020032006d
:100ab0000200be00ccff37000b50e100ceff3a0031
:100ac0000200be00c8ff370014002000810064004f
:100ad0003eff3700f8ff27008883610004003a00da
:100ae0000200e00002003a008c007800beff3700f0
:100af000150020008301640039ff370001f827004a
:100b00000000200081007500b7ff370003836800f4
:100b10000700280007036300470ade000480a100e5
:100b2000c71ade000580a100f70f20000720e100b2
:100b3000420032000728e10040003200889fbe00da
:100b40008a9fbe008c1f7800f107b200f307b20045
:100b50000400e000640032000170a0000500e00025
:100b6000680032000370a00085054200eb07b10069
:100b70000204b8000302b8008484440060854a007f
:100b8000020ab800848444000a854a00030ab800b7
:100b900004054500040033000804d0008984d20015
:100ba0000a85d2008b05e9006158e1003d0035005f
:100bb0000210200009016100030820008981610002
:100bc000f70720008783640008867300c84cde00a6
:100bd000c853dd00878474004855de000300e00040
:100be0000600320082037600040032008904e80027
:100bf00060054d000a88a3000c003a00f70f2000a2
:100c00000758e10044003d000a70a100c75ddd0007
:100c10000a8575008a007300090078004f06780085
:100c20004f05be004f04be00000006000a05d100bb
:100c30008984d3008b05e800f0ff3700881f780017
:100c40000604780090000700070278000001fd000c
:100c50008101fd008c000700870278008503720087
:100c60000778a300050032000001fd008101fd00ae
:100c70009f0007004f047800000006008503720003
:100c80000748a30003003200f0ff2f00f1ff270008
:100c9000f8ff37000000200001f82700888070006e
:100ca000f4ff3700880178004848dd00808171003a
:100cb0004848de00c850dd0001007000c850de006a
:100cc000060478000b017800160007008880700089
:100cd000d2ff37000500e0000500320017002000b9
:100ce0003a0007009dff370081037000f9ff3a00ca
:100cf000860078004f0678004f05be004f04be0006
:100d00000000050083037100f9ff32002700200076
:100d10002e00070094ff370001f82700868070003e
:100d2000f4ff37000100e0002600320061011100ed
:100d30007810e10023003c006022b8007010e10050
:100d40000400350080027800010078008000eb008c
:100d5000700151000200e00009003400700311002e
:100d6000062add00822ade008603dd00878272000b
:100d70000200de00860bdd00070070008208de0046
:100d800084817100f4ff2700048262008481710075
:100d900004002800848262006102600005f0a60061
:100da0000000060004827100070032000000e80025
:100db000e0804800000006000002be006000b800ad
:100dc000efff37006000b80000000600889fbe00fb
:100dd0000004eb006138e10016003a000100e00079
:100de00008003a00c800de004800dd00880020004e
:100df0000100e00003003a00c800de004800dd000a
:100e0000680444008184cf00e98454000600340063
:100e10008908dd00f08314008703de0087807000fe
:100e20000900dd0009044400610214004f04be0003
:100e3000000006000300e00008003a00c811de00d0
:100e40004811dd00880020000300e00003003a00a4
:100e5000c811de004811dd00680444008384cf001f
:100e6000e9845400060034008919dd00f083140081
:100e70008713de00878171000911dd000904440039
:100e8000e1021400e9ff37002700200001f0a7006d
:100e900017002000470bde00f60fb20004003200fe
:100ea0000643e8000a0032004702b30000000600d3
:100eb00001037800f607b2000603700002003a0052
:100ec0000703b300000006008702b300000006001d
:100ed00001037800f607b20006037000020032003a
:100ee0000770a000000006000760a00000000600d8
:100ef0000478a300040032000578a3000300320048
:100f00000168a30001003a000200be000160a000d9
:100f100000000600889fbe008a9fbe00841f7800e4
:100f20007c0007004f00780011003300f0ff2f0015
:100f3000838f6c0006003b00040565000a00a700d3
:100f40000800370009f0a600100020000800370054
:100f5000820f5400838f5c000300390010002000d2
:100f600001003e000000200009f0a7000000ea0098
:100f70004f05be004f04be000000e0000000060068
:100f8000881f7800030478000300e00007003d009c
:100f900060001000e080180060011900e081190075
:100fa00002003b0001f02d000300370004000700a1
:100fb00008f0a70001f0a0004f0478000000060030
:100fc000889fbe008a9fbe000082700004027100ec
:100fd00004827100260032000004be000200be0040
:100fe0006011b8006b092000950220000182cf003b
:100ff0000a0039000541b1000082cf000700390026
:101000000541b1000982cf00040039000541b1005b
:101010000882cf00010039000541b10005425200ad
:10102000120032000a003b008281710061016400fd
:101030008100d1000080d3008984d3000884d300cc
:101040008b05e8000442e800f7ff3a00070037008c
:101050000804440089844c00000048008180480056
:101060008b05e9000442e900f9ff3a00030007009c
:101070004f05be004f04be000000060081002000a6
:10108000618055000b003d000b00200061fe2f0029
:101090000100e1001d0034008281710061016400e3
:1010a0008904d1000884d3000000e800faff3a0068
:1010b0007100200061006400030070000200600005
:1010c0000900320061044400e0844c000988a50056
:1010d000050032008b05e8006808e10002003a00d4
:1010e0008904d1000884d300f20f20000258e100e7
:1010f00005003d00c75ddd00f907b200898075007d
:1011000008007800000006000bf827008b0078002c
:10111000000005000004be0079fd07000003be00ca
:101120000405be000200be0075fd0700844f750077
:0411300000000600b5
:020000040000fa
:10113400486f00006c610000204d0000756e0000d7
:08114400646f00000a000000c6
:020000040000fa
:10114c000000fa001622ef001822ef00b000200079
:10115c00f0108800b010800000f0a000b0108800e3
:10116c00c010800000a0a000c01088008f00a80054
:10117c000105800080ff2f00008060006000b3003c
:10118c00000588008700a9000080fa000000060016
:10119c000000fa008700a90000c8bf000001fb0096
:1011ac00e01080008040780010802000000041009a
:1011bc000148780000c8bf000040e80000e8b70014
:1011cc0000c8bf000000fb008000e9001080200078
:1011dc000080400010407800ea4f50000e003200b2
:1011ec0000c8bf00f44f50001b003a000b00370042
:1011fc0000c8bf008000fb00108020000080400071
:10120c008040eb000148780000c8bf000040e800b7
:10121c0000e8b700010037000000000000c8bf0064
:10122c00f44f5000f2ff3a001180200091407800fa
:10123c00e0c2b30080cf50000600340011802000c3
:10124c009140780030c4b30080cf500001003c00c6
:10125c00be0007000068ef000080fa0000000600e6
:10126c000200fa00000f7800040037001e0078001e
:10127c0010407800070007001e0fe8001e007800e1
:10128c00104078000004e000f8ff3a000080fa00fb
:10129c00000006000200fa00004f78000000000079
:1012ac00c110800000102000008060000000e000f1
:1012bc00fbff32001e80fb00d01088000080fa007b
:1012cc00000006000c00fa00881f78006801470037
:1012dc000089be0018c0b300680047006011b80058
:1012ec001000be00ddfc07000000e000010035002e
:1012fc000044eb000804e00007003200d0c2b30049
:10130c00e4ff0700680047001000be0001f0a200d7
:10131c00680147000089be00680047001000be004d
:10132c00d0fc07008000780064004700014878007a
:10133c0064004700104078000000fb00cf80de0006
:10134c00e9fc0700680247000001be001400be0063
:10135c00fdfc0700680147000089be0068004700db
:10136c0002002400c36124001000be00e4fd07004d
:10137c00680147000089be00680047001000be00ed
:10138c00b8fc07006601470000097800a1002000a6
:10139c000e80e80001087800060037000e80e80097
:1013ac00100078006a00b900800078000e80e80018
:1013bc000108780064004700104078000000fb0032
:1013cc008e80e8009100780001017800110009007e
:1013dc000200d8008000fd00800078006400470007
:1013ec00104078000000fb00808f5000ebff3a00ab
:1013fc000e80e80010017800706626000090b9009d
:10140c00c288de004f90de00808050000e80e80025
:10141c000108780064004700104078000000fb00d1
:10142c00000f78001a0037009e0078000e80e8004c
:10143c001000780000017800110009008200d8002b
:10144c00004078000043b00092ff07009e00780037
:10145c000e80e800100078000001780011000900ef
:10146c008200d8008000fd00000f78000e80e8009c
:10147c0010017800706626000090b900c288de006a
:10148c004f90de00808050000e80e800010878004c
:10149c000e80e800100078000000e000e2ff3c0045
:1014ac00e0c2b3007bff0700813e20000e80e80005
:1014bc000108780066004700100f78001a0037000a
:1014cc009e0078000e80e800100078000001780083
:1014dc00110009008200d800004078000043b000e1
:1014ec006cff07009e0078000e80e800100078006a
:1014fc0000017800110009008200d8008000fd0076
:10150c00000f78000e80e80010017800706626004d
:10151c000090b900c288de004f90de008080500041
:10152c000e80e800010878000e80e80010007800ba
:10153c000000e000e2ff3c0000c2b30055ff0700d2
:10154c004f0478000080fa00000006000400fa0046
:10155c0011c0b3000e80e8000148780011c0b30040
:10156c000e00e800014878001b0037001e40780090
:10157c008e80e800914078008180fb000088b900e3
:10158c0000007800004f78000e00e8001040780052
:10159c008080fb001080200000804000104078000c
:1015ac009e40400000cdb30000cf40000e80e8000c
:1015bc00104078006a00b900800078000e80e800c6
:1015cc00014878000e00e800104078008040e800e8
:1015dc000e00e800014878000e00e800104078008a
:1015ec008080fb00108020000080400010407800bc
:1015fc00ea4f5000ddff3a00218020009140780036
:10160c00f0c2b30080cf50000800320001c8bf0008
:10161c000000fb00e2fd2f00000141009e4078001d
:10162c00c081200000004100014878000080fa00d1
:10163c00000006000400fa00d222ef00d622ef00d0
:10164c00d722a800c0c12100100888000021ef009b
:10165c008460a9000002280020088800b8fe07005a
:10166c0020732000600888000621ef0084c0a900c8
:10167c001021ef008221ef00800c2000000c88006c
:10168c008421ef00210c800080ff2f00008060007f
:10169c006000b300200c88008008800000f0a000df
:1016ac00800888008c60a800a1048000000027003e
:1016bc0001007000a00488008460a9008da0a8001f
:1016cc000001200020108800001029003010880034
:1016dc00800020005010880085a0a90040d4210073
:1016ec00c1012000bd000700d722a900a0c0b30093
:1016fc001ce8b70040c1b3001de8b700e0c1b3005f
:10170c001ee8b70080c2b3001fe8b70020c3b300c7
:10171c002ae8b7006000b800240007006000b80099
:10172c00008fbe00d722a800a0892800ccfe07009d
:10173c0010802000cafe07002ac8bf00d5fe070093
:10174c00d0c2b300d3fe07002ac8bf000000fb00c4
:10175c00cf80de00e4fb0700a2702d0033c2230013
:10176c00e7fc0700008fbe001e00be00d5fe070080
:10177c00d0c2b300c7fe07002ac8bf000000fb00a0
:10178c00cf80de00d8fb0700a2702d0033c22300ef
:10179c00dbfc070005000700d722a90040d421007c
:1017ac00c10120008d000700deff37000400fa00a5
:1017bc00008fbe001e00be00c2fe07000200260005
:1017cc00634e24001e00be00cdfc0700a5fb0700e5
:1017dc0000007800000c88000080fa000000060071
:1017ec000000fa0063000700a00020001010880021
:1017fc000000000041108000000024000080600008
:10180c000000e00004003200401080006100600025
:10181c000000e000f7ff3a004110800000002800b3
:10182c00008060000000e0000300320015c8bf001b
:10183c000004a00015e8b70016c8bf000000fb00ac
:10184c001010880085c0a900000000004110800025
:10185c0000002400008060000000e0000400320062
:10186c0040108000610060000000e000f7ff3a00cb
:10187c0010002000010020005800070041108000db
:10188c0000002800008060000000e000030032002f
:10189c0015c8bf000014a00015e8b70046000700eb
:1018ac00b00020001010880085c0a90000000000c6
:1018bc004110800000002400008060000000e00067
:1018cc000400320040108000610060000000e00065
:1018dc00f7ff3a0010002000010020003f00070035
:1018ec004110800000002800008060000000e00033
:1018fc000300320015c8bf000024a00015e8b70093
:10190c000662a80000000000301080006800600033
:10191c000000e000fcff3a0006a2a8000682a80026
:10192c0085c0a9000000000030108000700060002d
:10193c000000e000fcff3a0000108000004078003e
:10194c0017e8b700020007000080fa00000006004c
:10195c000000fa000642a8000000000030108000d1
:10196c00640060000000e000fcff3a000080fa0018
:10197c00000006000000fa004010800070006000bb
:10198c000000e00004003a000017800068006000ce
:10199c000000e000060032000602a8000000000073
:1019ac0030108000610060000000e000fcff3a0095
:1019bc000080fa00000006000000fa000622a800d1
:1019cc000000000030108000620060000000e000a9
:0c19dc00fcff3a000080fa00000006004a
:020000040000fa
:1019e800f03fb1000180b10006003500ee030900a8
:1019f80000000000403fb1000180b100fbff3d0046
:101a08001000b000203fb00002003500008009003f
:081a18000000000000000600c0
:020000040000fa
:101a20000008000036000000000000000000000078
:020000040000fa
:0200000401f009
:04000000e0b9000063
:020000040000fa
:0200000401f009
:04000400ff7f00007a
:020000040000fa
:0200000401f009
:04000800ffff0000f6
:020000040000fa
:0200000401f009
:04001800ffff0000e6
:00000001FF
